:0200000480007A
:100400000200F9FC060000000010000000000000DF
:10100000BF10900000000000000000010000000080
:1010100000200000706603000000000000000000D7
:101020000030008000000000003000800000000060
:1010300000000000000000000000000000000000B0
:1010400000000000000000000000000000000000A0
:101050000000000000000000000000000000000090
:101060000000000000000000000000000000000080
:101070000000000000000000000000000000000070
:101080000000000000000000000000000000000060
:1030000097E10780938101B01772098013020218BB
:103010007310003097D209809382C2CD1681EF6081
:10302000E02EEF60202DEF60802FEF60A011EFD039
:10303000727BEF60000D7350003497E2FF7F938244
:1030400022C6739052307370017DEF60C02801A0DA
:0230500001A0DD
:103052002C01000076030000280100002801000076
:103062002801000028010000140600005806000094
:10307200460200002801000028010000280100008B
:103082002801000096060000CA060000FE060000A5
:1030920032070000660700008A07000028010000CE
:1030A200280100002801000028010000280100007A
:1030B200D80300002801000006050000F205000008
:1030C200280100002801000028010000280100005A
:1030D20028010000280100001E080000280100004D
:1030E200280100002801000028010000280100003A
:1030F200280100002801000028010000280100002A
:103102002801000028010000280100002801000019
:103112002801000028010000280100001802000018
:1031220028010000280100002801000028010000F9
:103132002801000028010000BC0200002801000054
:1031420028010000280100002801000028010000D9
:1031520028010000280100002801000028010000C9
:1031620028010000280100002801000028010000B9
:103172002801000001A0010001A00000011106CEFB
:1031820022CC26CA4AC84EC6F327203473241034F0
:103192002288F3290030F324B07C7329D07C139762
:1031A2004701518363CB0702AD46630FD704C28543
:1031B2003E8597900080E780E0182A84739009305A
:1031C200731014347310D97C7390B47CF24062444F
:1031D200D2444249B249056182809D466306D706C0
:1031E200AD46630FD7028D46E313D7FC52C4370AAC
:1031F20060E683274A0097900080E7808014854725
:103202002322FA00224A5DBF9797008093872713F3
:103212003687B2862E86AA8546858297110479BFA3
:1032220052C456C2370A20E4832A4A00110A638232
:103232000A0293070000B3C7FA209C438297232017
:103242005A01224A924A9DBF97900080E780400F20
:10325200B5B7224A924A9DB717A50900034505CB87
:1032620017E300806700C3EC17A50900034505CAF0
:1032720017E300806700C3EB37C700F083270720FE
:10328200C18B89CBC1472320F72097A7090083A7C9
:1032920067C88287828037C700F083270720C18BE7
:1032A20089CBC1472320F72097A7090083A787C6A8
:1032B200828782804111B71708F306C622C403A48D
:1032C200071123A887109317840063D8070097A7D4
:1032D200090083A7E7C491C3829763570400854717
:1032E20017A70900230CF7C2118809CC371708F376
:1032F20083274711ED9B232AF710914717A709004F
:10330200232CF7C0B2402244410182804111B717F9
:1033120008F306C622C403A4071123A88710931733
:10332200840063D8070097A7090083A767BF91C3EA
:10333200829763570400854717A709002300F7BE49
:10334200118809CC371708F383274711ED9B232AED
:10335200F710914717A709002320F7BCB240224477
:1033620041018280B7060DF003A70630B7D700C02F
:10337200938707807D8F11E3828023A4F64097A76D
:103382000900938727BA98431DC3411106C69C437F
:103392008297B7060DF083A7063037D700C0130710
:1033A2000780D98F23A0F630B24041018280B70650
:1033B2000DF083A7063037D700C013070780D98FD7
:1033C20023A0F6308280B7060DF003A70630B7D7E8
:1033D20000C0938707807D8F11E3828023A4F6408B
:1033E20097A70900938707B498431DC3411106C6E6
:1033F2009C438297B7060DF083A7063037D700C0EB
:1034020013070780D98F23A0F630B2404101828092
:10341200B7060DF083A7063037D700C01307078021
:10342200D98F23A0F630828017A70900032747B15E
:103432001C4F41113EC6B24793F7072095C75C5314
:1034420093D7874895E397A6090083A626AF89CE2E
:103452005C4B93F7F7DF5CCB930700201CCF5C57E4
:10346200DD9B5CD74101828641018280797106D65B
:10347200374707F05C5F3EC6B247C18B81E7B25067
:103482004561828022D44AD0C1475CDF054597E07E
:103492000080E78020321384419C5C401747038000
:1034A200130707A6B7060DF0B3C7E720984397A7FF
:1034B2000900A38307AA17A90900130969AA935748
:1034C2005700C1079207B6973317E028D8C383275E
:1034D2000900ADCF26D24ECE44441C441386019936
:1034E2008145B3A7F420370508F083D9E7FF977029
:1034F2000080E78000D210449386F4FF93F6F60F23
:103502008145370508F097700080E78080D5B707BE
:1035120008F0DC4FB3C70708638CF90017A709004E
:103522001307C7A21C438546A308D40085071CC302
:103532005C44032709001385419CFD175CC4225497
:1035420092540259F249B250456102872254B25054
:1035520002594561828019BF797106D6378707F013
:103562005C5F3EC6B247C18B81E7B2504561828043
:1035720022D44AD0C1475CDF054597E00080E7804E
:1035820060231384019B5C4017470380130747970E
:10359200B7060DF0B3C7E720984397A70900238D1C
:1035A200079A17A909001309699B93575700C10786
:1035B2009207B6973317E028D8C383270900ADCF07
:1035C20026D24ECE44441C44138601978545B3A7A8
:1035D200F420370508F083D9E7FF97700080E78071
:1035E20040C310449386F4FF93F6F60F85453705E2
:1035F20008F097700080E780C0C6B70708F0FC4F5C
:10360200B3C70708638CF90017A709001307C7930C
:103612001C438546A308D40085071CC35C440327CA
:1036220009001385019BFD175CC422549254025970
:10363200F249B250456102872254B25002594561A3
:10364200828019BF374700F083270720C18B91CBB7
:10365200C1472320F72097A7090083A7A79091C30A
:1036620082878280374700F083270720C18B91CB66
:10367200C1472320F72097A7090083A7A78E91C3EC
:1036820082878280378700F08327072093F707100D
:1036920099CB930700102320F72097A7090083A74F
:1036A200A78C91C382878280378700F08327072007
:1036B20093F7071099CB930700102320F72097A7C1
:1036C200090083A7678A91C382878280978708004F
:1036D20083A7079BDC4763C307008280014517F37A
:1036E20000806700636F9787080083A76799DC47AC
:1036F20063C307008280014517F300806700C36D32
:103702009787080083A7479ADC4763C30700828034
:10371200054517F300806700236C9787080083A78D
:10372200A798DC4763C307008280054517F3008032
:103732006700836A9787080083A78799DC4763C37A
:1037420007008280094517F300806700E3689787C6
:10375200080083A7E797DC4763C307008280094517
:1037620017F30080670043679787080083A7C7980D
:10377200DC4763C3070082800D4517F300806700B2
:10378200A3659787080083A72797DC4763C30700D1
:1037920082800D4517F30080670003649787080055
:1037A20083A70798DC4763C307008280114517F39C
:1037B2000080670063629787080083A76796DC47EB
:1037C20063C307008280114517F300806700C3605E
:1037D200154517F300806700437B154517F30080FA
:1037E2006700A37A797122D426D24AD04ECE06D669
:1037F200978408009384C48897890800938949971D
:1038020037840CF0054929A093848402638A340525
:10381200185483C71401B317F0287D8F19C31CD421
:1038220021475450FD8E81C6136707015CD014589E
:10383200FD8E81C6136727001CD854543376270B9C
:10384200FD8E81C6136647005CD432C6B247A18B97
:10385200C5DFDC50D5DB938484028297E39A34FB84
:10386200B250225492540259F249456182809DBF5E
:10387200F322003093F272FF130380181203B3E2B3
:1038820062006115232055007115232005001305E0
:1038920085FA10C121159792090083A2A263232001
:1038A2005500914263870200711523200500FD1225
:1038B200D5BF71150CC1828000000000179109006C
:1038C2000321C15F0241824092427390D27CA242A4
:1038D2007390B27C4101C2435244E2447245825524
:1038E2001256A2563257C2575258E2587259864956
:1038F200164AA64A364BC64B564CE64C764D865D6A
:10390200165EA65E365FC65FD65203A3C1B1232000
:103912005300E652A10273900230A242324309617F
:1039220082800000F322203473231034F32300300A
:1039320001A00000197106C216C41AC61EC822CA06
:1039420026CC2ACE2ED032D236D43AD63ED842DA3D
:1039520046DC4ADECEC0D2C2D6C4DAC6DEC8E2CA6D
:10396200E6CCEACEEED0F2D2F6D4FAD6FED883A2D4
:1039720001B296DAF322003096DC4111F322B07CD8
:1039820016C4F322D07C16C29792090083A2025376
:1039920023A0220073252034F325103491052EC074
:1039A200F322003417810380032101F4850273900E
:1039B2000234AD426312550897B00080E780A0BC84
:1039C200F3220034FD12739002341793090003238B
:1039D200E34E0321030082427390123492427390A9
:1039E200D27CA2427390B27C4101E65273900230C3
:1039F200D65203A3C1B1232053009240A2423243C4
:103A0200C2435244E244724582551256A25632577C
:103A1200C2575258E25872598649164AA64A364B3C
:103A2200C64B564CE64C764D865D165EA65E365FFC
:103A3200C65F096173002030F535F3220034FD12B0
:103A420073900234179309000323434703210300B1
:103A520082427390123492427390D27CA24273904B
:103A6200B27C4101E65273900230D65203A3C1B137
:103A7200232053009240A2423243C2435244E244C2
:103A8200724582551256A2563257C2575258E258C0
:103A920072598649164AA64A364BC64B564CE64CD4
:103AA200764D865D165EA65E365FC65F096173005F
:103AB20020300000197106C216C41AC61EC822CAD6
:103AC20026CC2ACE2ED032D236D43AD63ED842DABC
:103AD20046DC4ADECEC0D2C2D6C4DAC6DEC8E2CAEC
:103AE200E6CCEACEEED0F2D2F6D4FAD6FED883A253
:103AF20001B296DAF322003096DC4111F322B07C57
:103B020016C4F322D07C16C29792090083A2023B0C
:103B120023A0220073252034F32510342EC0F32273
:103B2200003417810380032121DC85027390023463
:103B3200EFF0CFE4F3220034FD12739002341793B6
:103B420009000323A3370321030082427390123436
:103B520092427390D27CA2427390B27C4101E652AF
:103B620073900230D65203A3C1B123205300924076
:103B7200A2423243C2435244E24472458255125633
:103B8200A2563257C2575258E25872598649164ABB
:103B9200A64A364BC64B564CE64C764D865D165EB3
:103BA200A65E365FC65F0961730020300000000028
:103BB200197106C216C41AC61EC822CA26CC2ACE3B
:103BC2002ED032D236D43AD63ED842DA46DC4ADE5B
:103BD200CEC0D2C2D6C4DAC6DEC8E2CAE6CCEACECB
:103BE200EED0F2D2F6D4FAD6FED883A201B296DA99
:103BF200F322003096DC4111F322B07C16C4F3228A
:103C0200D07C16C29792090083A2422B23A02200E5
:103C120073252034F32510342EC0F322003417818B
:103C22000380032161CC8502739002341795090049
:103C32000325852A83A541B27D579041D44118C1FD
:103C420054C110C19782038083A2C2C93387C200C4
:103C52003333C700B383660098C123A2750097B0BF
:103C62000080E780409009C597B00080E780A0916E
:103C7200F3220034FD1273900234179309000323D8
:103C8200E323032103008242739012349242739021
:103C9200D27CA2427390B27C4101E6527390023010
:103CA200D65203A3C1B1232053009240A242324311
:103CB200C2435244E244724582551256A2563257CA
:103CC200C2575258E25872598649164AA64A364B8A
:103CD200C64B564CE64C764D865D165EA65E365F4A
:103CE200C65F09617300203000000000197106C22E
:103CF20016C41AC61EC822CA26CC2ACE2ED032D24A
:103D020036D43AD63ED842DA46DC4ADECEC0D2C2F9
:103D1200D6C4DAC6DEC8E2CAE6CCEACEEED0F2D229
:103D2200F6D4FAD6FED883A201B296DAF322003094
:103D320096DC4111F322B07C16C4F322D07C16C269
:103D42009792090083A2821723A0220073252034B0
:103D5200F3251034635D05002EC0F3220034178171
:103D62000380032161B885027390023429A891056A
:103D72002EC0F3220034178103800321E1B68502AD
:103D820073900234A9A88542FE0213837200631560
:103D92006504179509000325251483A541B27D57B3
:103DA2009041D44118C154C110C19782038083A2AB
:103DB20062B33387C2003333C700B383660098C14E
:103DC20023A2750097A00080E780E0790DC997A033
:103DD2000080E780407B25A0EFF04FBA0DA0AD42F6
:103DE200631D5500F32200341383F2FF6349600020
:103DF20097A00080E780207919A02D3609A0F32230
:103E02000034FD1273900234179309000323030B4D
:103E12000321030082427390123492427390D27C47
:103E2200A2427390B27C4101E65273900230D652A4
:103E320003A3C1B1232053009240A2423243C243A2
:103E42005244E244724582551256A2563257C25724
:103E52005258E25872598649164AA64A364BC64B00
:103E6200564CE64C764D865D165EA65E365FC65FA4
:083E720009617300203000001B
:103E7A000000000000002A8309CA8383050023008A
:103E8A0073007D16050385056DFA828015C22A83A3
:103E9A0085466367B500FD561307F6FF3A93BA9550
:103EAA0083830500230073007D163693B6956DFA59
:103EBA0082802A8311C62300B3007D16050365FE9E
:103ECA0082800346050083C6050005058505631340
:103EDA00D60065FA3305D6408280AA882E833287B7
:103EEA002A88AE8763960620B73503809385055ED8
:103EFA006371C30CC1666377D60A9336061093B60C
:103F0A0016008E063355D600AA9583C505001305FB
:103F1A000002AE96B305D540630BD500B317B300C4
:103F2A00B3D6D8003317B600D58F3398B800935557
:103F3A00070133D3B702131607014182B3F7B70259
:103F4A001A85B30866029396070193570801D58F1D
:103F5A0063FC1701BA971305F3FF63E7E70063F5FC
:103F6A0017011305E3FFBA97B3871741B3D8B7020E
:103F7A00420813580801B3F7B702B3061603C2077B
:103F8A003368F800C687637BD8003A989387F8FFAE
:103F9A006366E8006374D8009387E8FF42055D8D85
:103FAA008145828037050001E146E37DA6F4C146DA
:103FBA0091BF814609CAC167637FF6089336061026
:103FCA0093B616008E06B357D600BE9583C7050072
:103FDA00B69793060002B385F6406395F608B307D1
:103FEA00C34085459358070133DE170313160701AB
:103FFA00418293560801B3F7170372853303C60348
:10400A00C207D58F63FC6700BA971305FEFF63E703
:10401A00E70063F567001305EEFFBA97B3876740B9
:10402A0033D31703420813580801B3F71703B3062B
:10403A006602C2073368F8009A87637BD8003A9809
:10404A009307F3FF6366E8006374D8009307E3FFFE
:10405A0042055D8D8280B7070001E146E375F6F6F9
:10406A00C14695B73317B600B356F3001355070187
:10407A003313B300B3D7F800B3E7670033D3A6020C
:10408A001316070141823398B800B3F6A602B308A3
:10409A0066029395060193D60701CD8E9A8563FC35
:1040AA001601BA969305F3FF63E7E60063F5160176
:1040BA009305E3FFBA96B3861641B3D8A602C207A0
:1040CA00C183B3F6A60233061603C206D58FC68687
:1040DA0063FCC700BA979386F8FF63E7E70063F5C6
:1040EA00C7009386E8FFBA97C205918FD58DDDBDCB
:1040FA0063E1D514C16763FFF60213B706101337DD
:10410A0017000E07B7370380B3D5E6009387075E1B
:10411A00AE9783C70700BA9713070002B305F740A3
:10412A006311F7020545E3EE66E633B5C8001335B9
:10413A0015008280B70700016147E3F5F6FC4147A5
:10414A00D1B73357F600B396B600D98E3357F3007A
:10415A003313B300B3D7F800B3E7670013D30601EC
:10416A00B35E670213980601135808013316B600A6
:10417A0033776702330ED8031315070113D70701E4
:10418A00498F7685637CC70136971385FEFF63677F
:10419A00D7006375C7011385EEFF36973307C7410A
:1041AA00335E6702C207C183337767023308C803E5
:1041BA004207D98F728763FC0701B6971307FEFF80
:1041CA0063E7D70063F507011307EEFFB6974205C9
:1041DA00416E598D9306FEFF3377D500B3870741A9
:1041EA00F18E1358050141823303D702B306D80270
:1041FA003307C7023308C8023306D700135703012F
:10420A0032976373D700729893560701C29663E098
:10421A00D702E397D7D8C167FD177D8F420733735B
:10422A00F300B398B8001A978145E3FCE8D67D15E8
:10423A0085BB8145014582803288AA872E87639390
:10424A00061AB73803809388085E63F6C50AC16602
:10425A00637CD6089336061093B616008E0633533F
:10426A00D6009A9883C8080013030002C696B308BA
:10427A00D340630BD30033971501B356D5003318D7
:10428A001601558FB317150113560801B356C70205
:10429A001315080141813377C702B386A602931525
:1042AA00070113D707014D8F6378D70042976365DB
:1042BA0007016373D7004297158FB356C702337746
:1042CA00C702B386A602C2074207C183D98F63F821
:1042DA00D700C29763E5070163F3D700C297958FAA
:1042EA0033D517018145828037030001E146E3781F
:1042FA0066F6C146ADB7814609CA41676374E606E8
:10430A009336061093B616008E063357D600BA981F
:10431A0003C70800369793060002B388E640639AFB
:10432A00E6043387C540935508013356B70213157F
:10433A000801418193D607013377B7023306A602F3
:10434A004207558F6378C700429763650701637315
:10435A00C7004297118FB356B7023377B702B386B5
:10436A00A60295B737070001E146E370E6FAC146AF
:10437A0069BF33181601B3D6E500B3171501B39513
:10438A0015013357E500135508014D8FB3D5A60221
:10439A001313080113530301B3F6A602B38565028A
:1043AA001396060193560701D18E63F8B600C2969A
:1043BA0063E5060163F3B600C2968D8E33D6A60274
:1043CA0042074183B3F6A60233066602C206558F38
:1043DA006378C7004297636507016373C700429712
:1043EA00118F91B763EDD516416863F7060513B8C7
:1043FA000610133818000E08B738038033D30601A5
:10440A009388085E9A9883C8080013030002C2982A
:10441A00330813416319130363E4B600636BC500E1
:10442A003306C540B386D5403337C500B2873387D4
:10443A00E6403E85BA858280B70800016148E3FDFF
:10444A0016FB414855BFB3571601B3960601DD8ED8
:10445A0033D7150113DE0601335FC7031393060131
:10446A0013530301B3970501B3551501DD8D93D796
:10447A00050133160601331505013377C703B30E59
:10448A00E3034207D98F7A8763FCD701B6971307EC
:10449A00FFFF63E7D70063F5D7011307EFFFB6976E
:1044AA00B387D741B3DEC703C205C181B3F7C703D8
:1044BA00768E3303D303C207DD8D63FC6500B695A0
:1044CA00138EFEFF63E7D50063F56500138EEEFFDA
:1044DA00B69593170701416FB3E7C701B3856540E6
:1044EA001303FFFF33F76700135E0601C1833373BB
:1044FA006600B30E6702338367023307C703B387C5
:10450A00C703330E670013D70E01729763736700F0
:10451A00FA97135307019A9741637D13337767001C
:10452A004207B3FE6E00769763E6F500639BF500DB
:10453A006379E5003306C7403333C7009A9632875A
:10454A00958F3307E5403335E5009D8D898DB39806
:10455A0015013357070133E5E800B3D50501828019
:10456A00370810007D180111B378B80013D7450138
:10457A009357D5013378D80026CA9374F77F1397D7
:10458A00380093D846010E084AC8D98F93F8F87FA5
:10459A001357D60106CE22CC4EC613D9F501FD8299
:1045AA00336707010E050E06338814416319D922B1
:1045BA006355000F63990802B366C700638E0650FD
:1045CA009305F8FF91E92A96B336A6003E973285FD
:1045DA00B307D7008544B9A89306F07F631DD800B6
:1045EA009304F07F4DA29306F07F638ED418B7062A
:1045FA008000558FC2859306800363CBB608FD46BB
:10460A0063C1B606130800023308B840B31607019F
:10461A00B358B60033180601B3E616013338000161
:10462A00B3E60601B355B7003695BE95B336D50045
:10463A00B387D500139787006357071485041307B8
:10464A00F07F6388E448370780FF7D177D8F935793
:10465A0015000589C98F1315F7015D8D935717004A
:10466A001DA2938605FE93080002B356D70001489F
:10467A0063881501130800043308B840331807018A
:10468A003368C80033380001B3E60601814569BFC3
:10469A00B366C700B336D000D5BF6309080AB3862C
:1046AA00984099ECB3E5A700638D05409385F6FF22
:1046BA0099D91308F07F639D0601BA8732850DB731
:1046CA009305F07FE38BB8FEB7058000CD8FB685E2
:1046DA009306800363C7B606FD4663CDB602130888
:1046EA0000023308B840B39607013353B5003318B4
:1046FA000501B3E6660033380001B3E60601B3D517
:10470A00B7003696BA95B336D6003285B387D50048
:10471A00C6840DB7938605FE13030002B3D6D700ED
:10472A00014863886500130800043308B8403398C9
:10473A0007013368A80033380001B3E60601814552
:10474A00C9B7B3E6A700B336D000D5BF9386140025
:10475A0093F5E67FA5E5B3E6A700B1E463860636DE
:10476A00B366C7008DC22A96B336A6003E97B30732
:10477A00D70013978700328563570700370780FFF2
:10478A007D17F98F854413777500630F0734137704
:10479A00F5009146630AD73413074500B336A700DC
:1047AA00B6973A8591A691DA598EE30B06E201494A
:1047BA00B707400001459304F07F3DA69305F07FBB
:1047CA006387B6302A963335A6003E972A97131583
:1047DA00F7010582518D93571700B6846DB7635A56
:1047EA00000D63940808B366C7006387062E930614
:1047FA00F8FF81EE3306C540B336C5003387E7407C
:10480A003285B307D7408544B9A09305F07FE30901
:10481A00B8DC9305800363CAD508FD4563C0D50695
:10482A00130800023308D840B358D600B31507015D
:10483A0033180601B3E515013338000133E60501E3
:10484A00B356D7003306C5403337C500B386D740C1
:10485A003285B387E64013978700E35607F2370499
:10486A0080007D147D8CAA8945AA9306F07FE38C8B
:10487A00D4F0B7068000558FC28661BF938506FEC5
:10488A0093080002B355B70001486388160113085C
:10489A0000043308D840331807013368C800333896
:1048AA00000133E60501814671BF598E3336C000D7
:1048BA00DDBF6305080C3388984095E8B3E5A70087
:1048CA00638E05209305F8FF91E93305A6401D8FF5
:1048DA003336A600B307C740368935B71303F07FCE
:1048EA00631F6800BA8732859304F07F7DA0930521
:1048FA00F07FE389B8FEB7058000CD8FC285130823
:10490A0080036349B8067D48634FB8021303000267
:10491A003303B340335EB500339867003313650041
:10492A003368C8013333600033656800B3D5B70014
:10493A003305A640B305B7403336A600B387C54052
:10494A00C684368909BF138805FE130E000233D8C0
:10495A00070101436388C501130300043303B3400D
:10496A00339367003363A300333360003365680011
:10497A0081457DBF5D8D3335A000DDBF9385140071
:10498A0093F5E57FADE533E8A700B365C700A9E471
:10499A0063170800F1CDBA8732853689EDB3E3840F
:1049AA0005DE3308C540B3380501B385E740B38552
:1049BA0015419398850063DA08003305A6401D8FD8
:1049CA003336A600B307C740C9BF3365B800630BC7
:1049DA000510AE87428545BB63180800E38905DCEC
:1049EA00BA8732853689EDBEE38C05BEC9B3B305F5
:1049FA00C5403338B5003384E74033040441131803
:104A0A008400AE8963530806B309A6403304F7400D
:104A1A0033363601118C368931CC2285EF20203A83
:104A2A00930685FF93070002958F3314D400B3D7FA
:104A3A00F900C18F3394D90063CE9606858E13860A
:104A4A0016007D476345C70413070002118F33958B
:104A5A00E700B356C4003317E400558D3337E0003E
:104A6A00598DB3D7C700814439BBC18DD5F581446F
:104A7A00014985A04E85EF20803493068501FD47C4
:104A8A00E3D2D7FA930785FFB397F90075B785166E
:104A9A0033D5D7009306000201476307D6001307F0
:104AAA000004118F3397E700418F3337E000598DA7
:104ABA00814755BF370780FF7D17958CF98F22856F
:104ACA00D9B1BA87328511BBBA8732856DB99304D9
:104ADA00F07F8147014509A8C28475B1BA8732853A
:104AEA00C28465BD8147014913978700635B07004C
:104AFA0085041307F07F638BE404370780FF7D1773
:104B0A00F98F9396D7010D811307F07FC98E8D8394
:104B1A006399E400DD8E814789C6B707080081469C
:104B2A000149139744013706F07FB207718FF240AB
:104B3A006244B183D98F1317F90133E6E700D244EF
:104B4A004249B2493685B28505618280814701456D
:104B5A004DBF797113D8450126D24AD04ECE5AC8D4
:104B6A005EC69394C50006D622D452CC56CA137890
:104B7A00F87F2A8BB28B3689B18093D9F50163010C
:104B8A0008089307F07F6308F80C135AD5018E04BE
:104B9A00336A9A00B7078000336AFA0013143500A3
:104BAA00930A18C0014B135749019314C90013778C
:104BBA00F77FB1801359F90171C39307F07F630935
:104BCA00F7108E0493D7DB01C58FB7048000DD8C04
:104BDA00139F3B00130717C081473388EA40131716
:104BEA002B005D8F7D17B94633C6290163E4E610B1
:104BFA00B73603800A079386865636971843028784
:104C0A0033EAA40063020A068DC82685EF20201B1A
:104C1A00930755FF754A130785FF330AFA40B39481
:104C2A00E400335A4B01336A9A00B314EB001308B9
:104C3A00D0C0B30AA8402684B5B7EF2040182A8A04
:104C4A0093075A01714713050502E355F7FC611AE8
:104C5A00331A4B01E9BF33EAA400631B0A0001447B
:104C6A00930AF07F094B81B70144814A054B25BF5E
:104C7A002A84268A930AF07F0D4B35B733EF7401E5
:104C8A0063010F069DC42685EF206013130755FFA5
:104C9A00F547930685FF998FB394D400B3D7FB00E9
:104CAA00C58FB394DB001307D0C0268F098FBE844B
:104CBA0025B75E85EF20A010AA8713875701F14612
:104CCA0013050502E3D6E6FCE117B397FB00E1BF43
:104CDA0033EF7401631B0F0081441307F07F894788
:104CEA00EDBD814401478547CDBD5E8F1307F07F37
:104CFA008D47E5B563E64401631A9A2A6368E42B93
:104D0A009316FA01935714001317F401135A1A0051
:104D1A0033E4F6009398840093558F01B3E51501A7
:104D2A0093D80801B35E1A031393050113530301C1
:104D3A009357040113158F00337A1A03F686330E3C
:104D4A00D303420AB3E7470163FCC701AE979386D0
:104D5A00FEFF63E7B70063F5C7019386EEFFAE97E0
:104D6A00B387C74133DF170342044180B3F7170300
:104D7A007A8EB30EE303C207C18F63FCD701AE97E5
:104D8A00130EFFFF63E7B70063F5D701130EEFFFBA
:104D9A00AE97C2064164B3E2C601130EF4FFB3F63E
:104DAA00C20193DF0201337EC501B387D741935E07
:104DBA000501B303DE02B384CF03B386DE02338F69
:104DCA00960093D60301FA96B38FDF0363F3960036
:104DDA00A29F13DF06017E9FC16FFD1FB3F6F60186
:104DEA00C206B3F3F3019E9663E7E70196846392E2
:104DFA00E7056370D704B30FA700B3B3EF0033849A
:104E0A00B300A2979384F2FF7E8763E6F50063926C
:104E1A00F5026390030263E6E701631CFF0063FA8D
:104E2A00DF00AA9F7E87B3BFAF00AE9F9384E2FFE5
:104E3A00FE97B306D740B387E7413337D700998F38
:104E4A007D5F6389F50EB3DF170313D70601B3F746
:104E5A001703330FF303C207D98F7E8763FCE70179
:104E6A00AE971387FFFF63E7B70063F5E701138780
:104E7A00EFFFAE97B387E74133DF1703C206C1825C
:104E8A00B3F71703FA883303E303C207D58F63FC2A
:104E9A006700AE979308FFFF63E7B70063F5670003
:104EAA009308EFFFAE9793160701B3E6160113971F
:104EBA0006014183B387674013D30601330FC70343
:104ECA00330EC30333836E02B38EEE0213570F0100
:104EDA00F29E76976374C701C16846939358070197
:104EEA009A9841637D13337767004207337F6F00D7
:104EFA007A9763E61701639D1719368F05CFAE9728
:104F0A00138FF6FF3E8363E1B70263E617016390EE
:104F1A001719637DE500138FE6FF9316150033B367
:104F2A00A6002E933E933685631413016304A700EB
:104F3A00136F1F001307F83F6357E00A93777F0048
:104F4A0081CF9377FF0091466388D70093074F007C
:104F5A00B3B6E701B6943E8F9397740063D80700FF
:104F6A00B70700FFFD17FD8C130708409307E07F82
:104F7A0063CEE704135F3F009397D40133EFE70151
:104F8A0013D534003205B250225431815207498F69
:104F9A007E06B367C70092540259F249624AD24A5E
:104FAA00424BB24B7A85BE85456182807D180147A6
:104FBA0095B34E86D284228FDA870D47638BE70A30
:104FCA000547638FE70A0947E396E7F60145014F6C
:104FDA001307F07F45BF4A86CDB7B7040800014FD3
:104FEA0001468D47D9BF0545198D9307800363C9CB
:104FFA00A708FD4763CBA7041308E841B397040148
:10500A003357AF0033180F01D98F33380001B3E794
:10501A00070133D5A40013F7770001CF13F7F70080
:10502A0091466308D70013874700B336F7003695D1
:10503A00BA871317850063480704131FD5018D83A8
:10504A00336FFF000D81014735BF8557998F93064E
:10505A000002B3D7F40001476306D5001307E843FB
:10506A003397E4003367E7013337E000D98F01450E
:10507A005DB737050800014F1307F07F014619B7DE
:10508A000145014FC9B70145014F0547E5BDFA86FC
:10509A00368F79BD13D74501B7071000FD1713D80E
:1050AA0046012A83AA8E1377F77F1305F07FB3F898
:1050BA00B700328FF58FFD811378F87FFD82631A6E
:1050CA00A70033EE6800054563140E006305E80087
:1050DA0082806315A8005D8E05457DFA0545E319B2
:1050EA0007FFE397F8FEE395EEFF6388D5006DF3BB
:1050FA00B3E868003335100182800145828093D776
:10510A00460193D84501370710007D172A882A8E51
:10511A0093F8F87F13F5F77F9307F07F3373B7009F
:10512A00B28E758FFD81FD826395F800B367030126
:10513A00A9EB9307F07F6315F500B367C700B1E3E6
:10514A00814763960800336803019337180005ED19
:10515A00598E91C701CA054591E67D5582800DE6B3
:10516A007D558DC98280E3C8A8FEE36B67FE63178D
:10517A00E300E3E7CEFF0145E376DEFF0545FDF1F7
:10518A00E9BF79558280E1FBE39CB6FCE35D15FD3E
:10519A007D55E9FA0545828093D7460193D84501A2
:1051AA00370710007D172A882A8E93F8F87F13F59F
:1051BA00F77F9307F07F3373B700B28E758FFD8147
:1051CA00FD826395F800B3670301A9EB9307F07FAB
:1051DA006315F500B367C700B1E38147639608001A
:1051EA00336803019337180005ED598E91C701CA38
:1051FA00054591E67D5582800DE67D558DC98280F3
:10520A00E3C8A8FEE36B67FE6317E300E3E7CEFF9C
:10521A000145E376DEFF0545FDF1E9BF09458280D8
:10522A00E1FBE39CB6FCE35D15FD7D55E9FA054516
:10523A008280797156CA93DA450122D426D24ECE9B
:10524A0052CC5AC89394C50006D64AD05EC693FA81
:10525A00FA7F2A84328BB689B18013DAF501638129
:10526A000A1E9307F07F6387FA228E049357D501AB
:10527A00C58FB7048000DD8C13193500938A1AC0D4
:10528A00814B13D749011394C9001377F77F3180F3
:10529A0093D9F901630207229307F07F6307F72680
:1052AA000E049357DB01C18F370480005D8C93068F
:1052BA0017C093173B000147B69A93962B00D98ED5
:1052CA00294613851A006345D6300946B3453A0183
:1052DA00634ED624FD1605466379D6264163130E1E
:1052EA00F3FF1357090193D807013379C90133FF33
:1052FA00C701B307E903B30EE70313D807013386DF
:10530A00280376963298B30617036373D8019A96E0
:10531A00935208013378C801B3F7C7011356040141
:10532A00337EC40142083E98B30EC903B307C703CC
:10533A00330926033303C7023E9913D70E014A974E
:10534A006374F700C1673E93416493570701930F53
:10535A00F4FF3E93B377F701B3FEFE01C207B3FF32
:10536A00F401F69793DE0401B303FF03BE92338F71
:10537A00EE0313D70301B384D803B388F803FA986A
:10538A0046976373E701A294135F0701269FC164DE
:10539A001384F4FF618FB3F383004207B3087700E5
:1053AA00B303FE03338ECE03B30ED6033306F603DE
:1053BA0093DF03017296B29F63F3CF01A69E33F780
:1053CA008F00B3F38300420796961E973A93B3B7BA
:1053DA00F6009A973336E300B69833B3670033661C
:1053EA006600B3B6D8003383E7019A963337F300E1
:1053FA0093DF0F0133B36600939798007E96336765
:10540A0067003297B3E707017697B337F00093D86E
:10541A007801260713D47601B3E71701A606D58FBC
:10542A0093167700598C63DB060013D71700858B18
:10543A005D8F9317F401D98F0580AA8A568539AAF8
:10544A0033E9A4006301090685C82685EF103017E1
:10545A00130755FFF547930685FF998FB394D40038
:10546A00B357F400C58FB314D400930AD0C0268969
:10547A00B38AAA40BE8429B5EF107014AA8713878D
:10548A005701F14613050502E3D6E6FCE117B31707
:10549A00F400E1BF33E9A400631B09008144930AC5
:1054AA00F07F894BF9BB8144814A854BD9BB2A8954
:1054BA00930AF07F8D4BF1B3B3676401B9CF1DC472
:1054CA002285EF10D00F930655FF7547930785FF86
:1054DA00158F3314F4003357EB00418F3314FB005C
:1054EA009306D0C0A287898E3A84F1B35A85EF1009
:1054FA00100DAA8793865701714713050502E356D3
:10550A00D7FCE1173317FB00E1BFB367640191EBE6
:10551A0001449306F07F094745B301448146054794
:10552A0061BBDA879306F07F0D4779B305463316D8
:10553A00D60093760653C5E613780624631F08122D
:10554A0013768608E30C06D8CE8589466302D712FD
:10555A008D46630AD7128546630BD7121306F53FA9
:10556A006353C00813F7770001CF13F7F70091468A
:10557A006308D70013874700B336F7003694BA8713
:10558A001317740063580700370700FF7D17798CDB
:10559A00130605401307E07F634CC70C8D839316EF
:1055AA00D401DD8E135734003207B250225452060A
:1055BA003183FE05598EB367B60092540259F249F7
:1055CA00624AD24A424BB24B3685BE8545618280D9
:1055DA003D46638AC60A2D46D285E387C6F62684E7
:1055EA00CA875E879DB70547118F9306800363C0FC
:1055FA00E60AFD4663CAE6041305E54133D6E70029
:10560A00B316A4003395A700D18E3335A000B3E7B3
:10561A00A6003357E40093F6770081CE93F6F7009D
:10562A0011466388C6009386470033B6F600329760
:10563A00B6879316870063CF06049316D7018D8326
:10564A00DD8E0D8301468DB78556918E13080002B3
:10565A00B356D4000146630607011306E543331621
:10566A00C4005D8E3336C000B3E7C600014765B794
:10567A00014781461306F07F05BF37070800130666
:10568A00F07F814515B7370708008146CDBF01472E
:10569A0081464DBF01478146054639B73708100094
:1056AA007D180111B378B80013D745019357D50176
:1056BA003378D8004AC81379F77F1397380093D8FC
:1056CA00460126CAD98F93D4F5011357D6010E087D
:1056DA0006CE22CC4EC693F8F87F9305F07F0E05CE
:1056EA00FD82336707010E066395B800B365C700EC
:1056FA0099E193C6160033081941639B96226355B4
:10570A00000F63990802B366C700638406529305C3
:10571A00F8FF91E92A96B336A6003E973285B30779
:10572A00D7000549B9A89306F07F631DD80013096D
:10573A00F07F5DA29306F07F6300D91AB706800056
:10574A00558FC2859306800363CBB608FD4663C1B5
:10575A00B606130800023308B840B3160701B35857
:10576A00B60033180601B3E6160133380001B3E672
:10577A000601B355B7003695BE95B336D500B38743
:10578A00D500139787006359071405091307F07F9B
:10579A00630EE948370780FF7D177D8F9357150001
:1057AA000589C98F1315F7015D8D935717002DA22F
:1057BA00938605FE93080002B356D7000148638812
:1057CA001501130800043308B84033180701336879
:1057DA00C80033380001B3E60601814569BFB366E4
:1057EA00C700B336D000D5BF630A080AB38628417A
:1057FA0063100902B3E5A700638205429385F6FFA9
:10580A0091D91308F07F639D0601BA87328505B7DF
:10581A009305F07FE38BB8FEB7058000CD8FB68580
:10582A009306800363C7B606FD4663CDB602130826
:10583A0000023308B840B39607013353B500331852
:10584A000501B3E6660033380001B3E60601B3D5B5
:10585A00B7003696BA95B336D6003285B387D500E7
:10586A00468905B7938605FE13030002B3D6D7000F
:10587A00014863886500130800043308B840339868
:10588A0007013368A80033380001B3E606018145F1
:10589A00C9B7B3E6A700B336D000D5BF930619003F
:1058AA0093F5E67FADE5B3E6A70063170904638ABB
:1058BA000636B366C7008DC22A96B336A6003E974F
:1058CA00B307D70013978700328563570700370756
:1058DA0080FF7D17F98F0549137775006303073633
:1058EA001377F5009146630ED73413074500B33694
:1058FA00A700B6973A85B1A689DA598EE30906E276
:10590A008144B707400001451309F07F1DAE930596
:10591A00F07F638BB6302A963335A6003E972A97D6
:10592A001315F7010582518D9357170036896DB704
:10593A00635A000D63940808B366C700638B062E8A
:10594A009306F8FF81EE3306C540B336C5003387A8
:10595A00E7403285B307D7400549B9A09305F07FE0
:10596A00E307B8DC9305800363CAD508FD4563C025
:10597A00D506130800023308D840B358D600B31529
:10598A00070133180601B3E515013338000133E680
:10599A000501B356D7003306C5403337C500B38671
:1059AA00D7403285B387E64013978700E35607F25C
:1059BA00370480007D147D8CAA8955AA9306F07F4E
:1059CA00E30CD9F0B7068000558FC28661BF938574
:1059DA0006FE93080002B355B70001486388160112
:1059EA00130800043308D840331807013368C80085
:1059FA003338000133E60501814671BF598E3336CB
:105A0A00C000DDBF6306080C33882841631B090206
:105A1A00B3E5A700638105229305F8FF91E93305F1
:105A2A00A6401D8F3336A600B307C740B6842DB7EC
:105A3A001303F07F631F6800BA8732851309F07F6A
:105A4A0045A89305F07FE389B8FEB7058000CD8F9E
:105A5A00C285130880036349B8067D48634FB802BC
:105A6A00130300023303B340335EB5003398670073
:105A7A00331365003368C801333360003365680047
:105A8A00B3D5B7003305A640B305B7403336A600F1
:105A9A00B387C5404689B68401BF138805FE130E35
:105AAA00000233D8070101436388C50113030004C8
:105ABA003303B340339367003363A3003333600087
:105ACA003365680081457DBF5D8D3335A000DDBF3C
:105ADA009305190093F5E57FB5E5B365C70033E88B
:105AEA00A7006316090463170800F9CDBA8732853F
:105AFA00B684DDB3E38205DE3308C540B338050159
:105B0A00B385E740B38515419398850063DA0800A9
:105B1A003305A6401D8F3336A600B307C740C9BF59
:105B2A003365B800630D0510AE87428575B36318F7
:105B3A000800E38705DCBA873285B684CDBEE388E0
:105B4A0005BE7DBBB305C5403338B5003384E74095
:105B5A003304044113188400AE8963540806B30958
:105B6A00A6403304F74033363601118CB68439CC5B
:105B7A002285EF10C024930685FF93070002958FB4
:105B8A003314D400B3D7F900C18F3394D90063CF4B
:105B9A002607B3862641138616007D476345C70448
:105BAA0013070002118F3395E700B356C400331769
:105BBA00E400558D3337E000598DB3D7C70001494A
:105BCA0021BBC18DCDF5014981448DA04E85EF10D1
:105BDA00001F93068501FD47E3D1D7FA930785FF96
:105BEA00B397F9006DB7851633D5D700930600022F
:105BFA0001476307D60013070004118F3397E700A4
:105C0A00418F3337E000598D814755BF370780FFF1
:105C1A007D173309D940F98F22857DB9BA87328534
:105C2A0031B3BA8732854DB91309F07F81470145EF
:105C3A0009A8428955B1BA873285428955BD81473B
:105C4A00814413978700635B070005091307F07FF8
:105C5A00630BE904370780FF7D17F98F9396D70105
:105C6A000D811307F07FC98E8D836319E900DD8EDC
:105C7A00814789C6B707080081468144131749013D
:105C8A003706F07FB207718FF2406244B183D98F31
:105C9A001397F40133E6E700D2444249B249368504
:105CAA00B28505618280814701454DBFB707100063
:105CBA00FD1733F7B700D18193C5F5FFF58F139818
:105CCA005501D18293F6F67F63150800498F054581
:105CDA0009EB1307F07F01456395E600D18F333551
:105CEA00F000828013D74501B70610009387F6FFAC
:105CFA001377F77F1306E03FED8FFD816354E604C7
:105D0A001306D0416357E600370500807D152E95AE
:105D1A008280D58F93063043998E7D46634DD60097
:105D2A001307D7BEB397E7003355D5005D8D81CDF4
:105D3A003305A0408280930630413387E64033D54D
:105D4A00E700F5B70145828013D7450137081000EF
:105D5A009307F8FF1377F77F1306E03FED8FAA86C4
:105D6A00FD816353E60413C615001306E641138545
:105D7A00F5FF635CC70201458DE913063043198EAE
:105D8A00FD45B3E7070163CAC5001307D7BEB3973A
:105D9A00E70033D5C6005D8D828093063041338794
:105DAA00E64033D5E700828001458280411106C66C
:105DBA0022C426C229CD9357F54133C4A7001D8CAE
:105DCA009354F5012285EF00907F1307E041A9471C
:105DDA00098F63C8A702AD47898F5505B357F400E9
:105DEA003314A4002685B207B18352077E055D8F5E
:105DFA00B240B367A700228522449244BE8541017E
:105E0A0082805515B317A40026850144E9BF0147CE
:105E1A008147E5BF411122C406C62A8421C1EF0089
:105E2A00107A1307E041A947098F63C4A702AD4757
:105E3A00898F5505B357F4003314A400B240228564
:105E4A00B20722445207B183B366F700B68541010F
:105E5A0082805515B317A4000144CDB78147014785
:105E6A00F1BFB7068000FD16411133F6A60013579D
:105E7A00750122C41354F5011315360013D67501A2
:105E8A00ED8E4AC01376F60F1379F70F06C626C2AF
:105E9A00FD8193973600B306C9406310B412635A62
:105EAA00D00611EE99CB9306F9FF81E6AA97054928
:105EBA003DA81307F00F631BE900AA87F9A013078F
:105ECA00F00FE30CE9FE37070004D98F6D4605474A
:105EDA00634DD6001306000233D7D700B306D64067
:105EEA00B396D700B336D000558FB307A7001397E0
:105EFA005700635C070805091307F00F6301E922DD
:105F0A003707007E93F617007D178583F98FD58FA3
:105F1A00ADA8A9CA33072641631D090049CD9306D6
:105F2A00F7FFC9D69305F00F631DB7001309F00FE9
:105F3A00A9A89306F00FE30BD6FEB7060004558D09
:105F4A00BA86ED45054763CCD50013070002158FC5
:105F5A003317E500B355D5003337E0004D8FBA97B4
:105F6A00328971B7130719009376E70F9DEE63190B
:105F7A00090201CDB9D3AA971397570063570700AF
:105F8A00370700FC7D17F98F054913F77700630976
:105F9A00071813F7F70091466304D718910749A227
:105FAA0051D5639B0710AA8751B79306F00F630672
:105FBA00D716AA9785833A89C9BF6352D00621EAC0
:105FCA00E38D07EE9306F9FF89E6B307F540054925
:105FDA0035A01307F00FE302E9EE6D460547634D5E
:105FEA00D6001306000233D7D700B306D640B396BD
:105FFA00D700B336D000558FB307E5401397570043
:10600A00E35507F8B7040004FD14FD8CE9A0130753
:10601A00F00FE304E9EA37070004D98F7DBFB9CE50
:10602A003307264163110902630305149306F7FF38
:10603A0081E6898F2E8461BF1308F00F631D070163
:10604A001309F00F35A29306F00FE30BD6FEB7063D
:10605A000004558DBA866D480547634DD80013076D
:10606A000002158F3317E5003358D5003337E000A7
:10607A003367E800998F32892E8449B713071900CC
:10608A001377E70F21E36314090201E5F5E30144FD
:10609A0041A8E38407E23307F54093165700898F36
:1060AA0063C8060CBA87E31207EE8147CDB7E31A35
:1060BA0005EE2E84E39C07E60144B70700021309A4
:1060CA00F00FB9A8B304F54013975400635C0702B4
:1060DA00B384A7402E842685EF00704E6D15B394C5
:1060EA00A40063452503330525410505130700026E
:1060FA00098FB3D7A400B394E400B3349000C58FDA
:10610A00014961B5E9F88147014951B7B70700FC70
:10611A00FD173309A940E58F8DBD1309F00F81479B
:10612A0013975700635B070005091307F00F630312
:10613A00E904370700FC7D17F98F1307F00F8D83E9
:10614A006316E90081C7B70740000144B24013173C
:10615A0079011315F401B706807F2244A607758FCB
:10616A00A583D98F924402495D8D410182803A8983
:10617A002E8421BD8147D1B7011126CA93547501D6
:10618A004AC84EC652C49319950006CE22CC56C2AE
:10619A0093F4F40F2E8A93D999001359F501A5C4E3
:1061AA009307F00F638EF4068E09B7070004B3E96C
:1061BA00F900938414F8814A93577A0113149A00C8
:1061CA0093F7F70F2580135AFA01ADC71307F00F9B
:1061DA00638EE7060E0437070004598C938717F875
:1061EA0001479D8C93972A00D98FFD173946B346EC
:1061FA0049016366F606373603808A071306465A4C
:10620A00B2979C438287638409024E85EF00303B34
:10621A009307B5FF9304A0F8B399F900898C61BF7D
:10622A009304F00F894AE38909F88D4A71B78144CA
:10623A00854A59B715C02285EF0070389307B5FF14
:10624A003314F4009307A0F8898F59BF9307F00F0E
:10625A00094741D80D4771B78147054759B7131602
:10626A00540063FD890CFD1481479355060133D808
:10627A00B90241670117718FC183B3F9B902428428
:10628A0033050703C209B3E7370163FCA700B297D6
:10629A001304F8FF63E7C70063F5A7001304E8FFD8
:1062AA00B297898F33D5B702B3F7B702AA853307F6
:1062BA00A702C20763F1E7023388C700B338F800C0
:1062CA009305F5FFC287639808006376E800930593
:1062DA00E5FFB307C8004204998F4D8CB337F0002D
:1062EA005D8C1387F4076357E0089377740099C7A6
:1062FA009377F40011466383C7001104931744008F
:10630A0063D80700B70700F8FD177D8C13870408C8
:10631A009307E00F63C5E70493573400F2406244E1
:10632A00A6075E07A5835D8F1395F601D2444249FD
:10633A00B249224A924A598D056182809397F9019E
:10634A0093D919001DB7CA864E8456878D476302B2
:10635A00F70685476305F7068947E314F7F8814787
:10636A001307F00F65BFD286D5B7370440008146C0
:10637A000D47E9BF8547998F6D476342F7049384B8
:10638A00E409B357F4003314940033348000C18F06
:10639A0013F7770019C713F7F70011466303C7000D
:1063AA009107139757008D83635C07008147054760
:1063BA00B5B7B70740001307F00F814685B7814785
:1063CA000147A9BFB7078000FD179356750133F639
:1063DA00A7001357F50193F6F60F13D575011308A5
:1063EA00F00FED8F1375F50FFD816393060115E626
:1063FA001308F00F631305018DE395EA0DE10DEA29
:10640A0095C7054585E57D558280E3CCA6FE63EDFB
:10641A00C7000145637CF600EDB77955828075D2D5
:10642A006399E500E353D5FE7D5591C582806DF9E8
:10643A00E5FB7D5565FF05458280B7078000FD179E
:10644A009356750133F6A7001357F50193F6F60F25
:10645A0013D575011308F00FED8F1375F50FFD8134
:10646A006393060115E61308F00F631305018DE324
:10647A0095EA0DE10DEA95C7054585E57D558280CA
:10648A00E3CCA6FE63EDC7000145637CF600EDB7D9
:10649A000945828075D26399E500E353D5FE7D559F
:1064AA0091C582806DF9E5FB7D5565FF05458280C2
:1064BA0001114AC81359750126CA4EC656C2931409
:1064CA00950006CE22CC52C41379F90FAE8AA58064
:1064DA009359F5016307090C9307F00F6300F90E4E
:1064EA008E04B7070004DD8C130919F8014A93D703
:1064FA007A0113949A0093F7F70F258093DAFA0139
:10650A00F9C71307F00F6380E70E0E04370700047C
:10651A00598C938717F801473E9993172A00D98F08
:10652A00294693061900634DF6140946B3C9590161
:10653A006344F60CFD170546637DF60C41681305A6
:10654A00F8FF13D6040193570401E98C698CB3054B
:10655A009402330486023306F602B387970233871E
:10656A00870093D70501BA9763F38700429633F7FA
:10657A00A7004207E98D2E97C18313146700B297CB
:10658A0069839A0733348000598C139747005D8CCE
:10659A00635707009357140005885D8C3689CA86AD
:1065AA0051A09DC02685EF0090019307B5FF1309FE
:1065BA00A0F8B394F4003309A9400DBF1309F00FF2
:1065CA00094A95D40D4A25B70149054A0DB715C0A0
:1065DA002285EF00C07E9307B5FF3314F4009307BA
:1065EA00A0F8898F0DBF9307F00F094715D40D47FF
:1065FA0025B7814705470DB70546B317F60013F6C9
:10660A00075349E613F6072461EA93F787089DD7EB
:10661A00D6898947630EF70A8D47630FF70A8547BC
:10662A006302F70C1387F6076355E0069377740045
:10663A0099C79377F40011466383C700110493172F
:10664A00440063D80700B70700F8FD177D8C13874D
:10665A0006089307E00F63CDE70693573400F2402C
:10666A006244A60713157701A583FE095D8DD244FE
:10667A004249224A924A33653501B249056182800C
:10668A003D46638BC7042D46E384C7F826845287A8
:10669A0049B78547998F6D476346F7049386E6099C
:1066AA00B316D400B357F400B336D000D58F13F71E
:1066BA00770019C713F7F70091466303D7009107CC
:1066CA00139757008D83635007028147054741BFDF
:1066DA0081471307F00F61B7B70740001307F00FA0
:1066EA008149B5BF814701479DBFB7068000FD16A6
:1066FA00411133F6A6001357750122C41354F5014C
:10670A001315360013D67501ED8E4AC006C61379E5
:10671A00F70F26C21376F60F1307F00FFD81939732
:10672A0036006313E60099E393C51500B306C94022
:10673A0063908512635AD00611EE99CB9306F9FF3E
:10674A0081E6AA9705493DA81307F00F631BE900E4
:10675A00AA87F9A01307F00FE30CE9FE3707000434
:10676A00D98F6D460547634DD6001306000233D70D
:10677A00D700B306D640B396D700B336D000558FAC
:10678A00B307A70013975700635C070805091307A7
:10679A00F00F6300E9223707007E93F617007D1792
:1067AA008583F98FD58FADA8A9CA33072641631D02
:1067BA00090049CD9306F7FFC9D69305F00F631D6B
:1067CA00B7001309F00FA9A89306F00FE30BD6FE42
:1067DA00B7060004558DBA86ED45054763CCD5004A
:1067EA0013070002158F3317E500B355D500333769
:1067FA00E0004D8FBA97328971B713071900937663
:10680A00E70F9DEE6319090201CDB9D3AA97139731
:10681A00570063570700370700FC7D17F98F0549B2
:10682A0013F777006308071813F7F7009146630315
:10683A00D718910741A251D5639B0710AA8751B770
:10684A009306F00F6305D716AA9785833A89C9BFBD
:10685A006352D00621EAE38D07EE9306F9FF89E633
:10686A00B307F540054935A01307F00FE302E9EE37
:10687A006D460547634DD6001306000233D7D7008D
:10688A00B306D640B396D700B336D000558FB307B8
:10689A00E54013975700E35507F8B7040004FD14C1
:1068AA00FD8CE9A01307F00FE304E9EA37070004B7
:1068BA00D98F7DBFB9CE330726416311090263021E
:1068CA0005149306F7FF81E6898F2E8461BF1308AA
:1068DA00F00F631D07011309F00F2DA29306F00FA5
:1068EA00E30BD6FEB7060004558DBA866D480547F8
:1068FA00634DD80013070002158F3317E50033588C
:10690A00D5003337E0003367E800998F32892E8447
:10691A0049B7130719001377E70F21E36314090234
:10692A0001E5EDE3014479A0E38407E23307F5408A
:10693A0093165700898F63C7060CBA87E31207EECE
:10694A008147CDB7E31A05EE2E84E39C07E601449E
:10695A00B70700021309F00FB1A8B304F540139763
:10696A005400635B0702B384A7402E8426858129DD
:10697A006D15B394A4006345250333052541050528
:10698A0013070002098FB3D7A400B394E400B33409
:10699A009000C58F014969B5F1F88147014959B796
:1069AA00B70700FCFD173309A940E58F95BD130908
:1069BA00F00F814713975700635B07000509130718
:1069CA00F00F6303E904370700FC7D17F98F1307FB
:1069DA00F00F8D836316E90081C7B70740000144B1
:1069EA00B240131779011315F401B706807F2244C8
:1069FA00A607758FA583D98F924402495D8D4101FF
:106A0A0082803A892E8429BD8147D1B73706800012
:106A1A00135775019307F6FF1377F70F9305E007EE
:106A2A00E98F9356F50163DFE5029305D00963D731
:106A3A00E500370500807D153695828033E5C7006D
:106A4A009307500963DAE7001307A7F63315E50041
:106A5A0099CA3305A040828093076009998F3355FC
:106A6A00F500FDB701458280B7058000935775018F
:106A7A009386F5FF93F7F70F1306E007E98E13578E
:106A8A00F501635EF602134617001306E6091305BD
:106A9A00F7FF63D7C702014505E71307500933E536
:106AAA00B6006357F7009387A7F63315F50082807F
:106ABA0013076009B307F7403355F5008280014593
:106ACA008280411106C622C426C2AA8745C113572D
:106ADA00F5413344A700198C9354F5012285C52446
:106AEA009307E009898F130760096344F702214776
:106AFA006301E50861153314A40026042580DE0726
:106B0A00B240C18F22441395F4015D8D9244410134
:106B1A008280130790096356F7041547098F930675
:106B2A00B5013357E4003314D40033348000418F65
:106B3A00370400FC7D1493767700798C91C63D8BDF
:106B4A0091466303D70011041317540063590700D1
:106B5A00B70700FCFD177D8C9307F009898F0D801C
:106B6A0069BF1307B5FF3317E400D9B7814401445D
:106B7A0069B79307600951B7411122C406C62A842E
:106B8A00014719CD2D2C1307E009098F93076009D6
:106B9A0063C1E702A147630BF50661153314A4002C
:106BAA002604258013157701B240418D2244410104
:106BBA0082809307900963D6E7049307B501954647
:106BCA00B317F400898EB337F0003354D400C18F61
:106BDA00370400FC7D1493F677007D8C91C6BD8B3B
:106BEA0091466383D70011049317540063D90700B1
:106BFA00B70700FCFD171307F0097D8C098F0D807C
:106C0A0045B79307B5FFB317F400D9B7130760095F
:106C1A0041BF135775011377F70F411193071700F7
:106C2A0022C426C21314950006C693F7E70F2580DF
:106C3A009354F5018DC79357340013070738760428
:106C4A00B207B18352071395F4015D8FB240B3675F
:106C5A00A700228522449244BE854101828015EB19
:106C6A00814779DC2285A12AA94763CEA700AD47CF
:106C7A00898F13075501B357F4003314E40013073F
:106C8A009038098F75BF930755FFB317F400014475
:106C9A00FDB7814719C493573400370708007604B3
:106CAA00D98F1307F07F69BF13D645011376F67F94
:106CBA009397C50013071600A5839356D50113773A
:106CCA00E77FDD8EFD819317350049C3130706C898
:106CDA001308E00F6348E8086342E0062555634558
:106CEA00A70C37058000C98E7945198D7D48634305
:106CFA00A802130626C833D5A700B397C700B3372F
:106D0A00F000B396C600D58FC98F014793F6770076
:106D1A00A9CE69A879583308E8409308000233D805
:106D2A000601014763061501130626CA3397C600F2
:106D3A005D8F3337E000B367E800C1BF1A0533350A
:106D4A00A0008E06F583C98ED58FC9B7D58F01E607
:106D5A00B337F0005DBF1307F00F81CB8E06B7077C
:106D6A000002DDB781471307F00F9396570063DBE4
:106D7A00060005079306F00F6301D704B70600FC67
:106D8A00FD16F58F9306F00F8D836316D70081C722
:106D9A00B70740008145B706807F5E07758F5D8F14
:106DAA001395F501598D82808547014793F6F700BF
:106DBA001146E38CC6FA91074DBF8147E1B7C16717
:106DCA006376F5029337051093B717008E073737A6
:106DDA000380930600029D8E3355F5009307075EE4
:106DEA00AA9703C507003385A640828037070001AA
:106DFA00E147E37EE5FCC147D9BF5547C1679387A1
:106E0A0007102310E500054758C11CC58280FD57AD
:106E1A002311F500A94723000500232205001CC5FC
:106E2A00828071714ECF06D7D441BD478949FD167C
:106E3A0063E5D72622D526D352CD4AD183C705008A
:106E4A0005672A97920793F7071FD58F2322F71012
:106E5A0083C7A50083C6B50003C68500FE07F606EC
:106E6A00D58FD18F2324F71083C79500F97693869F
:106E7A00F60F2320F55003264710832747102A844C
:106E8A000965C19B93E717002322F7108327072080
:106E9A00130505F03D8A9397C7282320F7208327F7
:106EAA0007462400130A0109F58F2320F74603C871
:106EBA000500D94683250746B3860641A206E98E10
:106ECA00CD8E2320D74683260720A6879396C648C9
:106EDA002320D72083264710C19AD18E2322D71088
:106EEA0003294710832647101379F900C19A93E6BC
:106EFA0016002322D710832607209396C62823201C
:106F0A00D72023A007009107E39D47FF0568229831
:106F1A0083274844370790FF7D17939777299397DC
:106F2A0087292322F8448327484485659149F98FA4
:106F3A0093974729939767292322F8448327881030
:106F4A00938505A01305200293E747009397D72955
:106F5A002324F810832708209397C7482320F82072
:106F6A0083274810C19BB3E727012322F810832700
:106F7A00082093E747002320F82083270820ED9B69
:106F8A002320F8208327082193F70708E5FF26879F
:106F9A003386B700144333268620035606001107AA
:106FAA008507B296232ED7FEE394A7FEFD19E39038
:106FBA0009FC3A48A2482A4513080880B3880841C0
:106FCA0042C746C502C4B38508417C00138604083B
:106FDA008146984391072E97BA9623AED7FEE39A35
:106FEA00C7FE9A47370602008146B305F500C695E3
:106FFA00B385054193D7750013D565001D8E4205EB
:10700A00D981EFC09FEDA68798439107198323AED4
:10701A00E7FEE39B47FF056722978326072005665D
:10702A0081479396C6282320D72083264710130624
:10703A0006A093052002C19A93E616002322D710D0
:10704A0083D604003387C700332787208507231098
:10705A00D7009104E396B7FE85673E94832744449C
:10706A0013172501B7C68FFF4983F58FD98F3707C5
:10707A00F001D98F2322F44483274410C19BB3E73C
:10708A0027012322F410832704209397C74823203B
:10709A00F4202A549A540A596A4ABA504E85FA492F
:1070AA004D61828083C70500BD462A8763E1F606E3
:1070BA0094450945B1CE83D6250003D6450093876A
:1070CA00070CC2069207D18EBA97D4C383C775003C
:1070DA00904583C605000565A607130505E0E98FF7
:1070EA001376F61FD18F93860640B3C6E6209CC25C
:1070FA0083C7650099CB85673E978327471183C667
:10710A000500B397D728232AF7100145828009453D
:10711A008280BD4763E4B702939745003E95856731
:10712A002300B600AA9703A747C00145418323114C
:10713A00E60083A747C02312F600828009458280B1
:10714A0003C70500BD46AA8763E6E60403C6150021
:10715A00FD46094563E1C604120705683E97429752
:10716A00832607C079751305F50FE98E2206D18E9D
:10717A002320D7C003C7050083C62500014512078F
:10718A00BA97C29703A707C0137707F0558F23A0B2
:10719A00E7C0828009458280BD4763EBB7009385CB
:1071AA00050C92052E951C4501452310F600828098
:1071BA000945828018429A05B307B50098C39843D7
:1071CA001DE71846C16898C75842D8C7584E98CB89
:1071DA00584A144E0328C6004207A20693F6061020
:1071EA0033771701558F9376F803558FD8CB1C4AFE
:1071FA002E955849B7060001E207F58FD98F5CC969
:10720A00014582809A05E1052E9591CAB3A6C6204A
:10721A008357060009062310F500E31BD6FE828079
:10722A008347560009472A886367F71803474600C9
:10723A0009456361E518FD4863EEB8168348C6013F
:10724A00638608008328460163960816032306000E
:10725A004175B708010133756500630E151583285A
:10726A008601B317F028FD170965B3F8170113054E
:10727A0045F4639108140323C600B318E028FD18E7
:10728A00B3F86800639808128328060133D7E748E1
:10729A00B3F717015D8F631F0710484A1D896318EA
:1072AA000510139755004297232467041C4A370F89
:1072BA0000101303FFFF3CCB034E460083288601D0
:1072CA0093978500AE97B3D8C801B3F86800232214
:1072DA00170583284601C207B315B02893F888FF1B
:1072EA00232C17057CC72322B8022324B80223269D
:1072FA00B8022328B802035386008347C60183488D
:10730A00D6010348E601B366D300FE07834E0600A2
:10731A00D58FFA08B706004083451600B3F8D8009F
:10732A009316C801B3F6E601B3E71701034E460008
:10733A00D58FF60EB706002003435600B3FEDE00D3
:10734A0093968501B705000FED8EB3E7D701834801
:10735A002600D58F560EB706E0000348360083454F
:10736A006600337EDE004A038346760037061C0039
:10737A003373C300B3E7C70113961801B3E7670075
:10738A003703020033766600C16842083378180171
:10739A00D18FFD181396E50033761601B3E707017E
:1073AA00D18FB2060D66F18ED58F3CC382800965F6
:1073BA00130545F4828009458280411122C42E8436
:1073CA0022855146814506C6EFC0BFAEC147230894
:1073DA0004002319F400B2402244410182807971E9
:1073EA0006D6AE8783C5E50002C002C202C402CA3D
:1073FA0002CE2A87B28699C50946A303C10005466B
:10740A00A301C10003C6F70019C609462303C10038
:10741A0005462301C10083C5D7007D460945636D32
:10742A00B60203C6C70083CE070103DE270183A87D
:10743A00070003A3470003A8870093178600D18F8C
:10744A003A850A86230ED1012314C1012312F100C1
:10745A001AC646C842CCE933B25045618280797176
:10746A0006D65AC803AB85008D4763EB67134ECE29
:10747A0052CC5EC683ABC50021472A8AAE8909452C
:10748A006369771156CA83AA450163EC570F22D460
:10749A0026D283C70502C05184556398071062C477
:1074AA004AD0328C631304126395041E8146025932
:1074BA00224CBE8403A7090083C74900E6067D174C
:1074CA00133717007607558F91CF5A0B336BEB00A2
:1074DA009397CB001D67F98FB3E7670113E707009E
:1074EA001317872983A7C90103C5090183C5190190
:1074FA0003C629018D8B8E0A3305A0403708200068
:10750A003375050183C68901B3E75701C98FB305EE
:10751A00B0402165E98D3306C040CD8F137606024F
:10752A00B306D040D18F918AD58FD98F89C7139747
:10753A0027607E07D98F03270A009316A70063D610
:10754A00060003278A01232CEA002320FA0083D7A6
:10755A00690303D74903B7060F00C207F58FD98F0E
:10756A00232CFA0083D7090301452322FA0283D781
:10757A002903232EFA0023248A0023269A00225460
:10758A009254B250F249624AD24AB24B424B4561D6
:10759A008280F249624AB24BB250424B45618280C4
:1075AA00B250424B094545618280D4551D659547C5
:1075BA0013059597E3E5D7FC1D65B367940041670A
:1075CA0013058597E3E8E7EE5DBF37D69A3B1306C6
:1075DA0006A0335686029307803E81463307FC0293
:1075EA00B337FC029305F7FF3385C500133717003D
:1075FA00B335B500998FBE95EFC03F8E2A842E8988
:10760A00D1C437D69A3B130606A0335696021307FF
:10761A00803E8146B307EC02333CEC029385F7FFC8
:10762A003385C50093B71700B335B500330CFC405A
:10763A00E295EFC09F8AAA872E87B366270133E6B1
:10764A008700B9CA814641659315F9011316F701F6
:10765A0005801359190085830583D18F4D8C3366B4
:10766A00E900B365F400850665F2E3FFA5FC1D6534
:10767A00154713059597E37CD7E222549254025991
:10768A00F249624AD24AB24B224C39B78147014782
:10769A006DB701440149B5B7C166E375D6FA39B584
:1076AA0021C9411122C406C62E849DCD1306C004E9
:1076BA0081452285EFC0EFFF372709EDB7F70400B0
:1076CA004166854613070771938797CF7D1654C481
:1076DA002306D402232004022328040250D8232C90
:1076EA00040214D458DC3CC0B240224441018280D6
:1076FA00828061CDF9C983C7950003C8350083C864
:10770A00150003C6550037032000B307F0403308BD
:10771A00004183C67500B3F7670013780802B3E720
:10772A0007013306C0401398380003C7B500B3E712
:10773A00070113760608D18FB306D0403706020038
:10774A00F18E03C3650083C80500D58F3307E04077
:10775A00B7068000758F03C82500D98F33036040B0
:10776A00416703C685003373E300B308104183C63B
:10777A00450003C7A500B3E7670093F84800B305BF
:10778A000041C189B3E71701CD8F3306C040B70561
:10779A0010006D8EB306D04093F60604D18FD58FB4
:1077AA003307E040B7064000758FD98F89C7139712
:1077BA0027607E07D98F18419316A70063D4060065
:1077CA00184D18CD5CC1014582800945828031C5BA
:1077DA00411122C406C62E84894791C9B045B10514
:1077EA0019C626C2AA84A539AA8719C59244B240E5
:1077FA0022443E8541018280A2852685DD3DAA87F5
:10780A0075F598409316A70063D40600984C98CC57
:10781A000347440498D09244D9BF89473E85828061
:10782A0039C51C4193F707029DC71C41544D8D83EE
:10783A008D8B33C7060899CF09466385C7028545EC
:10784A003A866388B7023D83318F058B0606518FCE
:10785A003347070858CDB757455A9387F7241CC9A9
:10786A000145828015671307A75A58CDEDB7094518
:10787A008280B70702008606F917FD8E1356F700B5
:10788A0033E7C60058CDC1BF8D4763EFD70285479E
:10789A0063ECD70092052E953316C0282324C560C1
:1078AA008DE22324C550828092052E958567AA977A
:1078BA003316C02823A4C7802322C5608947E382E0
:1078CA00F6FE2322C55082809147639DF6009205F9
:1078DA002E9585673316C028AA972322C56023A24E
:1078EA00C78082808280938705019207858AAA973A
:1078FA003316C02881CA938505029205D0C32E95F6
:10790A0050C1828093850502920590C72E9550C179
:10791A008280F95705479306F00FDCC59CC9DCC97C
:10792A009307101023A00500D4C123A405009CCD01
:10793A0023860502239EE50023A2050223A405024D
:10794A0098D18280AA8705C10328460018460945AE
:10795A00636CE80099EA9A05AE97984301451317B4
:10796A00F74898C382800945828014429A05338772
:10797A00B70008434168C206B3F606011315054964
:10798A00C98E14C3084675589306F5FF6362D80476
:10799A0054C3504275559306F6FF6369D502AE97F4
:1079AA0094C7FD575CC71C430145E19B93E7470019
:1079BA001CC31C439397E7281CC31C439397E748AF
:1079CA001CC31C439397F7281CC38280B286C1BF8D
:1079DA00AA8654C3504275559306F6FFE371D5FC47
:1079EA00F5B70347A60119C38947FDC9411106C660
:1079FA005C421308F00F014E638707019A0793F759
:107A0A00F70F13EE0702032F8600832E06000348A2
:107A1A00C6019397A6000343B60193F67E008348F6
:107A2A008601B3E7E701D58F93163800D58F120385
:107A3A00034896018346C602B3E76700A6083607DD
:107A4A0003230601B3E71701D98F13178800D98FCB
:107A5A0013971601D98F9306F3FF7557B3E7C7013A
:107A6A006361D706139765003308E5002324D8001D
:107A7A000328C600F5589306F8FF63E9D8022A9747
:107A8A0054C303284601F5589306F8FF63EED8005D
:107A9A0054C71CC38346D601130606026535B24095
:107AAA0081473E8541018280C286DDB7C2862A9718
:107ABA0054C303284601F5589306F8FFE3FAD8FCA5
:107ACA00E5B7139765009A863308E5002324D800A2
:107ADA000328C600F5589306F8FFE3F2D8FAF9B777
:107AEA003E85828079715AC8328B2A8637E50B54D3
:107AFA0052CC81462E8A1305054089454ECE06D6BC
:107B0A0022D426D24AD056CA5EC6EFC00FBD8547D8
:107B1A00AA89AE86630FFA0E8947630EFA0C13051B
:107B2A00907D631F0A0A2D64B16BA96A8564056991
:107B3A008547054A13048479938B0B35938A0AC4C3
:107B4A00938484BB1309499C2318FB004E861305B2
:107B5A00401F8145EFC06FB813961900118C33543A
:107B6A003403F955898DB38BCB40B38ACA40338726
:107B7A00C440B306C94013082500B34805080145A7
:107B8A00B3CB3B03B307B400B3DA3A03AE9BB3D724
:107B9A004703AE9A33473703B3E7770BB3E7570B7D
:107BAA0033C307081A98C207B3C636032E9733673A
:107BBA00070A334707085D8F2326EB00330838038B
:107BCA00AE96B3E6060AC206B3E6D8002324DB0063
:107BDA00B307C800338A47032320FB0023224B0143
:107BEA00B250225492540259F249624AD24A424B42
:107BFA00B24B456182800564856B856A89471304A7
:107C0A008438938B5BD0938A8AA281441309401FDC
:107C1A0025BF0D64896B856A85648947094A1304FF
:107C2A00842C938BDB08938A0A77938484BB130989
:107C3A00803E19BF797122D426D206D623220502A4
:107C4A0095471CD55C552A84B284F99B5CD52E8550
:107C5A0083451600700002C602C802CA02CC02CED0
:107C6A00513525E1835741018355610123280402D7
:107C7A0003C80400B708E000D607B3F71701035694
:107C8A008101E205B708001FB3F515018356A1016A
:107C9A00CD8F06080357C101B3E70701420689657C
:107CAA0037081F00337606019206C115ED8E7D173F
:107CBA00D18FD58F36078966758FD98F93E757008D
:107CCA005CD4B25022549254456182801307F6FF65
:107CDA008567AA866375F706184D056581471318E7
:107CEA004701130595386345080031A8638BA7043B
:107CFA00984E850713184701E34A08FE05671307DC
:107D0A0097386380E704930700209CCE93F5F53FEC
:107D1A008967CCCE0567938707E06309E6001357A6
:107D2A00860062071376F60F518FD98FDCD2DC56A4
:107D3A00014593E78700DCD685479CD682800945B2
:107D4A0082800D458280938785DA930670302A8770
:107D5A00B3C7070863EBF6001C49014593F7078090
:107D6A009397B748CD8F1CCB828009458280AA871A
:107D7A0039C937B79F26B7A61CE9B2961307072059
:107D8A0009456363D70405476360B70437376E0153
:107D9A00130707603355E6029E05AE9783A60708C8
:107DAA0093F6F6073376E6026396A6001307F5FF05
:107DBA0023A0E70823A0A7083346C620060623A265
:107DCA00C708014582800945828001C5854763F35A
:107DDA00B700828096052E963345A6208327050C88
:107DEA0093F6F60393F707FCD58F9397C7292320B9
:107DFA00F50C828041C50547AA8701456373B70020
:107E0A00828001119E0506CE22CC26CA4AC84EC6D9
:107E1A00AE9703A9070803A547083704004083A9BA
:107E2A0087087D14618DEFD0FFFEAA8433F589009F
:107E3A002E84EFD03FFE2A86AE862685A285EFC025
:107E4A005FD1AA841375F9072E84EFD0BFFC2A8666
:107E5A00AE862685A285EFC0AFF097070300938709
:107E6A0047719043D443EFD0CFBCEFD0FFEDF2403F
:107E7A006244D2444249B249056182800145828006
:107E8A0019C5054881466377B800368582808146E0
:107E9A00368582809397550041113E9606C626C2C2
:107EAA0022C493070603B3C7A7208043A137EFD0A4
:107EBA007FF6AA841375F4032E84EFD0BFF59707D3
:107ECA0003009387876B9043D443EFC09FC89707FB
:107EDA0003009387076B9043D443EFC06FE82A8669
:107EEA00AE862685A285EFC0DFC6EFD0FFE5B24099
:107EFA0022449244410182808567938737B02314D4
:107F0A00F50082808547130700022300F500A300CD
:107F1A00E50023010500A301050023020500A302D1
:107F2A0005002303F500A303F5008280854723009B
:107F3A000500A3000500A301050023020500230193
:107F4A00050023030500A30305002304F500A30489
:107F5A0005002305F500A305F5008280DC412A8788
:107F6A00A9CB944163F4D70233D6F6020945B3F696
:107F7A00F60293771600D58F95EF9307E01F63EB10
:107F8A00C70205827D161376F60F19A01306F00FA5
:107F9A0083C7850083C695008565938505F00D65C1
:107FAA00B207A206E98FED8ED58FD18F3CC301456A
:107FBA0082800945828083C7250003CE350003C32A
:107FCA00450083C8750003C8550003C665009E07AF
:107FDA00120E83C6050003C71500B3E7C701931540
:107FEA003300CD8F93F81800931528009189B3E7D1
:107FFA0017010606CD8F098AFD16D18FC2067D1795
:10800A00896537060300F18E2207938505F0D58F1F
:10801A006D8FD98F1CC9828083C855001C4903C83B
:10802A0085002A876388080063060800094593D7F4
:10803A002748C5EF7D1603C30500FD1637FE1F004E
:10804A009317C60003C51500B3F7C70193FEF61FC1
:10805A0003CF3500B3E7D701FE0803CE2500B3E707
:10806A0017019318E301B3E717017605C98F560F75
:10807A0003C39500B3E7E701720E370F001083C8F8
:10808A004500B70E000F337EEE01620803C5A50056
:10809A003378D801B3E7C701B3E707015A033708B2
:1080AA00C000337303011398B8009318B028B3E7DC
:1080BA00670033781801260513750560B3E70701D1
:1080CA00C98F1CD383C7B5000C5B370500F17D153A
:1080DA00E207E98DB3F7D701CD8F1CDB50C314C774
:1080EA001C5B014593E777001CDB8280011122CCDF
:1080FA0026CA4EC652C406CE4AC803290501328A88
:10810A00B6892A84AE843A86BE86135929486318EA
:10811A0009005C590565130595BB858BA9E7A685FA
:10812A002285DD3D29E183C7640089C71C5893E78E
:10813A0007011CD883C7740089C71C5893E78700B6
:10814A001CD86312090283C7140091C7638009040B
:10815A0083A709001CD483C7040091CF63080A02CD
:10816A0083470A005CD0F2406244D2444249B24991
:10817A00224A056182809307F00F5CD0F240624484
:10818A00D2444249B249224A056182800945E1BF87
:10819A00797106D622D426D24AD0AE8452CC56CA97
:1081AA00368AB28A5AC85EC64ECEEFE0FF9C2A844F
:1081BA002685EFE07F9CAA852285EFD0FFFBAA8463
:1081CA002149970B030083AB4B64130B00024A85CA
:1081DA00EFE03F8FAA852685EFD01FFAEFE0DF8810
:1081EA003344050835CC33052403EFE09F8DAA8577
:1081FA00AA892685EFE06FA4AA87A6854E8563CB58
:10820A000700CE852685EFE0EF9BAA87CE852685D7
:10821A006358F002EFE06FCDEFE01F85B347050822
:10822A0033C5F7203345A5200A0599CBEFE07F89AE
:10823A00A685EFD07FF4DE85EFE0CF986342A002F7
:10824A0023908A0023002A010545B25022549254F1
:10825A000259F249624AD24A424BB24B4561828084
:10826A000909E31669F70145CDB7B707000F9387E8
:10827A00073071679CC5C167A94613070720DCC58B
:10828A008547D8C123980500239A050023AC050029
:10829A00238ED5002390050223A205022384D5024A
:1082AA002386F5028280011122CC26CA06CE232219
:1082BA0005025C55374705F02A8493E707085CD521
:1082CA00AE846300E5028841CC4109C59307700C6E
:1082DA0063ECB7121305903EF2406244D244056142
:1082EA008280E547A306F10089472317F100014779
:1082FA00894565465C489146819BD18F5CC80CD004
:10830A0058D05C5403C7A40093F777F463E6E614E5
:10831A0097B602009386663C3347D72018433697B0
:10832A00028793E7870303C784008546E19B6302BC
:10833A00D70C8946630AD710094559FF03C7940029
:10834A000D8B5D8F58D499471CCC83C7C40083C555
:10835A00E40083C6D400096603C7B400130606F016
:10836A00A207F18FCD8F8E06D58F4207B7061F0061
:10837A00758FD98F939777291CCC83C7F40083C64E
:10838A00040103C714019607920613471700D58FF5
:10839A000607D98F1CD8504003C744019C4C13765A
:1083AA0006C083C6C40183C5540150C05040A60705
:1083BA0093F70720D18ED58F2207D98F5CC05C50E6
:1083CA00C1C19397F7295CD083C7C40289C75C40AF
:1083DA009397B7285CC0F2406244D24401450561D4
:1083EA00828003C7840093E787028546E19BE312F4
:1083FA00D7F403C7940093E7470099B793E7870137
:10840A001DB793E7870005B793973500E364F5EC4A
:10841A00C167FD17B357F50213975500E36CF7EAE6
:10842A009306D1001306E100A533E30505EA0357D5
:10843A00E1000346D1009375F70F7D8A21835DBD64
:10844A009397F7495CD049B703C794000945E305F8
:10845A0007E893E74700EDB50945BDBD011122CCF8
:10846A0006CE5C552A8493E707085CD509C613072C
:10847A00700C6368B700F24062441305903E0561D0
:10848A008280139735003285E367E6FE41677D17E0
:10849A003357E60293975500E3EFE7FC9306D100C2
:1084AA001306E100F53161D954488347D1000357D7
:1084BA00E100819AFD8BD58F5CC89377F70F1CD0AA
:1084CA00218358D05C54014593F7F7F75CD4F24006
:1084DA006244056182805859856693869638137777
:1084EA00070201C729A8630FD7005C59050793F74C
:1084FA000702F5DB8567938797386305F7000CD188
:10850A00014582800D458280AA8648590566014741
:10851A00137505041306963801C505A0630DC70037
:10852A00DC5A050793F70704F5DB856793879738C5
:10853A006303F70082800D45828001458280585985
:10854A00856693869638058B01C721A86300D702F2
:10855A005C590507858BFDDB856793879738630729
:10856A00F7001C5101452380F50082800D45828069
:10857A00504183C7050083C68500370801FCD841EE
:10858A007D183376060150C1C206E2075041D58FE5
:10859A006607B7060002758FD98FD18F5CC103C7F2
:1085AA0015005C5111C79397E7295CD10145828078
:1085BA009397E7495CD10145828083274521411180
:1085CA0013073006F59B232AF52083274521939725
:1085DA004749232AF520832705209397B728232084
:1085EA00F52002C6B247636AF70083274521B247DE
:1085FA0085073EC6B247E37AF7FE8327052093979D
:10860A00C7482320F5208327052013974701E35CF9
:10861A0007FE41018280011122CC26CA2A8406CE95
:10862A00AE84613F832704211307300693F7F7F1DD
:10863A00939747492328F420832704209397C72830
:10864A002320F42002C6B247636AF7008327442135
:10865A00B24785073EC6B247E37AF7FE832704206E
:10866A009397B7482320F4208327042093979749A8
:10867A002320F420832744229397F7292322F422E4
:10868A0083274422E3DE07FE832704219397B72832
:10869A002328F4208327442193974729232AF42067
:1086AA0099C48327442193E72700232AF420F24020
:1086BA006244D24405618280B70608008547A10654
:1086CA004146138707073347A720850714C3E39A50
:1086DA00C7FE83278517232CF516232E0516832715
:1086EA0045142322F5148327C51A2326F51A83274E
:1086FA00C51B232EF51A8327051BF5FFFD57232AD1
:10870A00F51A8327451BF5FF82804111814522C452
:10871A0006C62A84093783270414F99B2320F414F4
:10872A008327041493E727002320F41483270414CF
:10873A00898BEDFF8327841A370701FF7D17F99B81
:10874A00F59B2324F41A8327841A93E7270023240A
:10875A00F41A8327841ADD9B2324F41A8327841AA4
:10876A00ED9B2324F41A832744189397D74923228D
:10877A00F418832744189397C7492322F4188327A8
:10878A000414F98F2320F4148327441A93E717005B
:10879A002322F41A23240414B24022444101828081
:1087AA008327051493E717002320F514828083C6D4
:1087BA00150083C7050013F7F6003345A7200326E3
:1087CA00051C8A079D821377B6FF93E7070C5D9B0A
:1087DA0081CA1377F6FFC2071317274913173749B8
:1087EA00D98F2320F51C828093974500C18B858100
:1087FA00AE97B317F0282328F51A828093F7F5006D
:10880A0033C5A7208327051C9D81054791C1416770
:10881A00D98F2320F51C828093F7F50033C5A72052
:10882A000327051C9D8189CD131767292320E51C81
:10883A000327051CC177FD17F98F2320F51C8280B9
:10884A00136707042320E51C0327051CF957F98F32
:10885A002320F51C828093F7F50093870707B3C797
:10886A00A72088439D81C16791E185477D8D333576
:10887A00A000828093D6750093974600BD8933176E
:10888A00B0283317F7008327451BD98F232AF51AF7
:10889A008327451BF98FEDFF8327851BF98FE5F7A2
:1088AA00B3C7A52003A7071C99CEB70673FFFD1609
:1088BA00758F23A0E71C83A6071C37070800558F6E
:1088CA0023A0E71C8280137727F723A0E71C83A63F
:1088DA00071C2147558F23A0E71C82809D4763EA26
:1088EA00A70617B70200130787E03345E5201C41A6
:1088FA00BA97828737356E01130505608280014673
:10890A00814537050CF46FF0AFD705468145370529
:10891A000CF46FF0EFD60946814537050CF46FF079
:10892A002FD60146854537050CF46FF06FD50546FD
:10893A00854537050CF46FF0AFD4094685453705F0
:10894A000CF46FF0EFD30D46854537050CF46FF044
:10895A002FD301458280AA8721811375F50F2D47F0
:10896A00636CA71C97B60200938666DA3347D52054
:10897A001843411106C6369713F6F70F028713F507
:10898A00E70F630405160145B24041018280B787AB
:10899A0012F49C4337356E011305056013972700BF
:1089AA00E35407FE2165CDB793077002E3EEC7FCD7
:1089BA00B70700F4096722C4B347F620BA9703A49D
:1089CA00478003A54780EDA813F5E70F4DFD37074C
:1089DA0000F493070670B3C7E7209C43970503008A
:1089EA009385E5E99306E00F93D78748B3C7B72085
:1089FA009C436380D712B29793F7F70F93067002DE
:108A0A00E3E4F6F8B3C7E720096722C4BA9703A4D8
:108A1A00478003A5478021811D89C9359377F40FC3
:108A2A0085073355F502224485B7970703009387D4
